:100000000C9495000C94BD000C94BD000C9421063A
:100010000C9421060C9421060C94BD000C94BD0098
:100020000C94BD000C94BD000C94BD000C94BD005C
:100030000C94BD000C94BD000C94BD000C94BD004C
:100040000C9499060C94BD000C9409070C94E306DB
:100050000C94BD000C94BD000C94BD000C94BD002C
:100060000C94BD000C94BD005253343835536F636B
:100070006B65743A3A73657475702063616C6C6576
:1000800064206265666F726520696E697469616C6F
:10009000697A656400536F636B657420546573748B
:1000A00020536C61766520696E697469616C697A48
:1000B00065642031004E6F20646174610020636FBD
:1000C000756E743D006C65747465723D00000000CF
:1000D00000240027002A00000000080002010000A0
:1000E00003040700000000000000000000000023DF
:1000F000002600290000000000250028002B000435
:1001000004040404040404020202020202030303BE
:1001100003030301020408102040800102040810B8
:1001200020010204081020003B0711241FBECFEF5E
:10013000D8E0DEBFCDBF11E0A0E0B1E0EAE9F5E133
:1001400002C005900D92A634B107D9F722E0A6E4CB
:10015000B1E001C01D92AA34B207E1F710E0C5E991
:10016000D0E004C02197FE010E94C50AC439D1071E
:10017000C9F70E941B080C94CB0A0C9400008091D4
:10018000340290913502DC01ED91FC910284F385FB
:10019000E02D09948091340290913502DC01ED91BB
:1001A000FC910084F185E02D0994A0913402B09176
:1001B0003502ED91FC9111970190F081E02D682FAF
:1001C000CD010994FC0190E08CE8615088F05191D8
:1001D00048E0792F7527292F30E035952795922F04
:1001E00070FF02C0982F92275695415091F7EDCF9E
:1001F000892F08952091950130919601281739078C
:1002000071F49091940180919301981741F0E091DD
:100210009401F0E0ED5AFE4F808190E008958FEF59
:100220009FEF08950895EF92FF920F931F93CF933E
:10023000DF93DC015C96ED90FC905D97E114F10496
:1002400079F481E090E013969C938E93129790E05E
:1002500080E0DF91CF911F910F91FF90EF90089573
:100260005196ED91FC91529750968C915097982F02
:1002700090950FB75E962C915E97122F127021FD0C
:100280006095F8942081112319F1282B2083E70130
:100290002197F1F728E0462F50E0308160FF1AC027
:1002A000382B3083E7012197F1F7BA0175956795EF
:1002B000215089F7112381F08081892380830FBF2A
:1002C0005C968D919C910197F1F781E090E0C1CF10
:1002D0002923DCCF3923E5CF9081892BEFCF2091E3
:1002E0009501309196012817390771F48091930197
:1002F0002091940190E0805C9F4F821B910960E403
:1003000070E00E947B0A089590E080E008952091BB
:1003100095013091960128173907B9F4909194010D
:1003200080919301981789F0E0919401F0E0ED5AE3
:10033000FE4F80812091940130E02F5F3F4F2F735B
:1003400033272093940190E008958FEF9FEF089555
:100350000F931F93CF938C01C62F262F30E0C90136
:1003600044E0959587954A95E1F79FE08927207F9E
:10037000D8011496ED91FC91822B09958C2F8295D2
:10038000807FC095CF70D8011496ED91FC918C2B95
:10039000CF911F910F91099490E0FC01E952FF4F1A
:1003A0002491FC01ED5EFE4F3491FC01E150FF4FC2
:1003B000E491EE23C9F0222339F0233001F1A8F4AF
:1003C000213019F1223029F1F0E0EE0FFF1FEB5040
:1003D000FF4FA591B4918FB7F894EC91611126C0AD
:1003E00030953E233C938FBF08952730A9F02830E5
:1003F000C9F0243049F7809180008F7D03C080913F
:1004000080008F7780938000DFCF84B58F7784BDA5
:10041000DBCF84B58F7DFBCF8091B0008F77809349
:10042000B000D2CF8091B0008F7DF9CF3E2BDACFD4
:10043000CF93DF9390E0FC01ED5EFE4F249181505D
:100440009F4FFC0184918823D1F090E0880F991F81
:10045000FC01E353FF4FA591B491FC01EB50FF4F1A
:10046000C591D49161110EC09FB7F8948C91E22F81
:10047000E0958E238C932881E223E8839FBFDF9150
:10048000CF9108958FB7F894EC91E22BEC938FBF46
:10049000F6CF3FB7F89480914F0190915001A09111
:1004A0005101B091520126B5A89B05C02F3F19F00C
:1004B0000196A11DB11D3FBFBA2FA92F982F8827E4
:1004C000BC01CD01620F711D811D911D42E0660FBF
:1004D000771F881F991F4A95D1F708958F929F9291
:1004E000AF92BF92CF92DF92EF92FF924B015C01ED
:1004F0000E9449026B017C010E9449026C197D092E
:100500008E099F09683E734081059105A8F321E09B
:10051000821A9108A108B10888EEC80E83E0D81E9F
:10052000E11CF11C81149104A104B10429F7FF908E
:10053000EF90DF90CF90BF90AF909F908F900895F5
:10054000AF92BF92CF92DF92EF92FF920F931F93E1
:10055000CF93DF936C017B018B01040F151FEB011F
:100560005E01AE18BF08C017D10759F06991D601D6
:10057000ED91FC910190F081E02DC6010995892B48
:1005800079F7C501DF91CF911F910F91FF90EF9007
:10059000DF90CF90BF90AF90089590E080E00895F5
:1005A000FC01538D448D252F30E0842F90E0821B79
:1005B000930B541710F0CF96089501970895FC01FE
:1005C000918D828D981761F0A28DAE0FBF2FB11D56
:1005D0005D968C91928D9F5F9F73928F90E00895AE
:1005E0008FEF9FEF0895FC01918D828D981731F068
:1005F000828DE80FF11D858D90E008958FEF9FEFBC
:100600000895FC01918D228D892F90E0805C9F4F91
:10061000821B91098F739927089587E991E00E94C1
:10062000010321E0892B09F420E0822F089580E066
:1006300090E0892B29F00E940D0381110C94000099
:100640000895FC01A48DA80FB92FB11DA35ABF4F67
:100650002C91848D90E001968F739927848FA689C1
:10066000B7892C93A089B1898C91837080648C9315
:10067000938D848D981306C00288F389E02D8081C4
:100680008F7D80830895EF92FF920F931F93CF93F6
:10069000DF93EC0181E0888F9B8D8C8D98131AC0BD
:1006A000E889F989808185FF15C09FB7F894EE89A4
:1006B000FF896083E889F989808183708064808301
:1006C0009FBF81E090E0DF91CF911F910F91FF904C
:1006D000EF900895F62E0B8D10E00F5F1F4F0F73F4
:1006E0001127E02E8C8D8E110CC00FB607FCFACFAF
:1006F000E889F989808185FFF5CFCE010E94210329
:10070000F1CFEB8DEC0FFD2FF11DE35AFF4FF0827F
:100710009FB7F8940B8FEA89FB8980818062CFCFE5
:100720000F931F93CF93DF938C01D0E0C0E0F801CB
:10073000EC0FFD1F6491662341F087E991E00E9470
:100740004303892B11F02196F2CFCE01DF91CF9197
:100750001F910F910895CF93DF93EC01888D88232B
:10076000B9F0AA89BB89E889F9898C9185FD03C014
:10077000808186FD0DC00FB607FCF7CF8C9185FFF9
:10078000F2CF808185FFEDCFCE010E942103E9CF1A
:10079000DF91CF910895DC01ED91FC910684F785FE
:1007A000E02D0995FC01848195810895DC01ED918E
:1007B000FC910684F785E02D0995FC0182819381E7
:1007C0000895CB0107970895DC011E96ED91FC91E9
:1007D00081890895AF92BF92CF92DF92EF92FF92FC
:1007E0000F931F93CF93DF935C016B017A01DC01C0
:1007F0001E96CD91DC918E819F81892B09F4A2C038
:100800008A819B81892B09F49DC088819981892BDC
:1008100009F498C001E0EA81FB81099518161906D0
:100820000CF090C0E881F98109959C0133272230B2
:10083000310531F123303105B9F12B85222359F3EC
:100840009C0194E0359527959A95E1F72F70332711
:1008500080958F708217130649F11B861A86198AB4
:100860001C8A1D8A1E8A1F8A8C859D85AE85BF8540
:100870000196A11DB11D8C879D87AE87BF87CBCF09
:100880000B87188A198A0B8B2FB7F89480914B012C
:1008900090914C01A0914D01B0914E012FBF8C8BD6
:1008A0009D8BAE8BBF8BB7CF088BB5CF8B89882341
:1008B00019F02A8B1B8AAFCF1A891295107F122B41
:1008C0001A8B0B8B69898889882321F18E819F81FE
:1008D0000E94E2001813C1CF0A87D5011E96ED9140
:1008E000FC910680F781E02DBFEFCB16DB0611F5FA
:1008F000818190E0D7018D939C93CF010796DF9182
:10090000CF911F910F91FF90EF90DF90CF90BF900C
:10091000AF900895862F90E0288539858217930738
:100920000CF09BCFEE81FF816F5F698BE80FF91FA1
:10093000108371CF848195818F3F9807C9F28C1500
:100940009D05B1F2F7011182108290E080E0D7CFCF
:10095000AB01DC011A966D917C911B97ED91FC9196
:100960000284F385E02D0994AF92BF92CF92DF927B
:10097000EF92FF920F931F93CF93DF938C01F22E90
:10098000EA012797DC011D968C911D9791E0980F45
:100990001D969C931D97888329831A968D919C910F
:1009A0001B979B838A837D836C831E8261E01C96E8
:1009B0008C910E94CC01F801C684D784F7E0FF0E29
:1009C000D6011496ED91FC913097E1F082E0099503
:1009D0005E01E12CEF1440F4F50161915F01C60165
:1009E0000E94A801E394F6CFD6011496ED91FC91F4
:1009F00083E009956F2DCE010E94E200682FC601A9
:100A00000E94A80160E0F8018485DF91CF911F91D9
:100A10000F91FF90EF90DF90CF90BF90AF900C942C
:100A2000CC0147505109FC0150874783695F7F4FD4
:100A300076836583CB01089581E020913402309163
:100A40003502232B09F480E008958C0161E08DE0EC
:100A50000E94180260E08DE00E94CC01D0E0C0E06E
:100A60006AEF70E080E090E00E946E0261E08DE04D
:100A70000E94CC016AEF70E080E090E00E946E027C
:100A800060E08DE00E94CC0121960C171D0741F714
:100A900060ED77E080E090E00E946E02DBCF42E004
:100AA00050E062E471E087E991E00C94A002CF93FA
:100AB000DF930E949003EC010E944F058C0F9D1F55
:100AC000DF91CF910895EF92FF920F931F93CF93F1
:100AD000DF937C01E0913402F0913502309741F4CC
:100AE00088E690E00E94570581E190E00E9425058C
:100AF000138E128E118E108E178A168A8BE890E054
:100B0000958F848F8485863108F03DC024E330E0E2
:100B1000378B268B29E830E0318F208F2EE530E0AF
:100B2000338F228F90916800883008F47BC021E0D9
:100B30008E3008F420E081E001C0880F2A95EAF7A2
:100B4000892B8093680094852DE630E0983050F032
:100B50002BE630E09E3030F02CE630E0963110F09D
:100B600030E020E0348B238B292F30E0983008F0E0
:100B70005BC081E001C0880F9A95EAF7858B848D70
:100B8000958D0197F1F7828D938D892B29F1A09195
:100B90009501B0919601EA17FB07F1F0109759F013
:100BA00053962D913C915497E901988155968C91DB
:100BB000809589238883868D8E7F868F10929301FE
:100BC00010929401F0939601E0939501A389B48962
:100BD0008C919589892B8C93F70106851785D8010F
:100BE00018968D919C910E945609E8019F838E83EF
:100BF0001B861A86198A1C8A1D8A1E8A1F8A1C86D1
:100C00001D861E861F8661E0E7018C850E94180202
:100C100060E08C85DF91CF911F910F91FF90EF9055
:100C20000C94CC0184E08CCF9E3040F428503109E4
:100C300081E001C0880F2A95EAF7A0CF2E50310934
:100C4000F7CF1F920F920FB60F9211242F933F935D
:100C50004F935F936F937F938F939F93AF93BF93C4
:100C6000EF93FF93E0919501F0919601309749F051
:100C7000A685B7858585968D91FF14C09C918923A3
:100C8000A1F4FF91EF91BF91AF919F918F917F91CF
:100C90006F915F914F913F912F910F900FBE0F90E9
:100CA0001F9018959C91892361F7A389B4899C9121
:100CB0008589809589238C93868997890197F1F797
:100CC000608D718DA685B785558538E020E0CB0114
:100CD0000197F1F7822F90E095958795282F4C91F9
:100CE000452309F02068315091F7868D81FD2095CC
:100CF0008091930190E001968F7399273091940130
:100D0000381799F0A0919301B0E0AD5ABE4F2C93E3
:100D100080939301828D938D0197F1F7A389B48914
:100D20008C919589892B8C93ACCF868D8160868F31
:100D3000F1CF1F920F920FB60F9211242F933F9372
:100D40008F939F93AF93BF9380914B0190914C01F0
:100D5000A0914D01B0914E0130914A0123E0230F43
:100D60002D3758F50196A11DB11D20934A0180939E
:100D70004B0190934C01A0934D01B0934E01809193
:100D80004F0190915001A0915101B09152010196F3
:100D9000A11DB11D80934F0190935001A09351016B
:100DA000B0935201BF91AF919F918F913F912F913D
:100DB0000F900FBE0F901F90189526E8230F0296F4
:100DC000A11DB11DD2CF1F920F920FB60F92112409
:100DD0002F933F934F935F936F937F938F939F9343
:100DE000AF93BF93EF93FF9387E991E00E942103B4
:100DF000FF91EF91BF91AF919F918F917F916F91F3
:100E00005F914F913F912F910F900FBE0F901F90C8
:100E100018951F920F920FB60F9211242F938F9354
:100E20009F93EF93FF93E091A701F091A801808138
:100E3000E091AD01F091AE0182FD1BC090818091E7
:100E4000B0018F5F8F732091B101821741F0E09163
:100E5000B001F0E0E956FE4F958F8093B001FF910D
:100E6000EF919F918F912F910F900FBE0F901F9038
:100E700018958081F4CFCF92DF92EF92FF92CF93BB
:100E8000DF9310929A011092990198EEC92E93E087
:100E9000D92EE12CF12CC0929B01D0929C01E092C2
:100EA0009D01F0929E018AE091E0909398018093D9
:100EB000970185EC90E09093A4018093A30184ECCA
:100EC00090E09093A6018093A50180EC90E0909330
:100ED000A8018093A70181EC90E09093AA018093F0
:100EE000A90182EC90E09093AC018093AB0186EC79
:100EF00090E09093AE018093AD011092B0011092FA
:100F0000B1011092B2011092B3018EE291E0909380
:100F100037028093360210923502109234028FE12C
:100F200090E00E945609EC011B821A82CC82DD827D
:100F3000EE82FF828CE191E0998388831F8A1E8A6A
:100F4000198E188E1B8E1A8E1D8E1C8E6E8D6E7FC6
:100F50006D7F6E8F6695617081E0682787E00E94E3
:100F6000CC0161E087E00E941802EAE1F1E0E4913F
:100F7000E88BE6E0F1E0E491F0E0EE0FFF1FEB50CC
:100F8000FF4F859194919A8B898B60E084E00E9459
:100F900018028E8D81FD04C061E084E00E94CC01C6
:100FA00084E08C87E7E1F1E0E491ED87E3E0F1E0B4
:100FB000E491F0E0EE0FFF1FE551FF4F8591949112
:100FC0009F878E87D0933502C093340282E080934E
:100FD000420281E090E0909341028093400280E4DD
:100FE00080933F0261E082E00E94180288E190E075
:100FF0000E945609FC0180913F022FEB30E03183C3
:1010000020832AEC30E03383228325ED30E03583E2
:1010100024831782168290E091878087F09345029F
:10102000E093440210924302DF91CF91FF90EF9042
:10103000DF90CF900895CF93DF93CDB7DEB7A3971E
:101040000FB6F894DEBF0FBECDBF789484B5826032
:1010500084BD84B5816084BD85B5826085BD85B55C
:10106000816085BD80916E00816080936E001092DA
:101070008100809181008260809381008091810055
:1010800081608093810080918000816080938000E6
:101090008091B10084608093B1008091B000816044
:1010A0008093B00080917A00846080937A00809170
:1010B0007A00826080937A0080917A0081608093C8
:1010C0007A0080917A00806880937A001092C10043
:1010D000E091A701F091A80182E08083E091A30153
:1010E000F091A4011082E091A501F091A6018FEC8E
:1010F00080831092AF01E091AB01F091AC0186E0EA
:101100008083E091A901F091AA01808180618083B0
:10111000E091A901F091AA01808188608083E0912B
:10112000A901F091AA01808180688083E091A901E2
:10113000F091AA0180818F7D808361E080E00E9430
:10114000180286E392E00E94630585E990E00E9420
:10115000570590E0E92E90E0F92EAE014E5D5F4F0D
:1011600061E070E086E392E00E94EA03009709F4F0
:1011700092C0FC010081118185EC90E00E949003F7
:10118000602F87E991E00E9443038DEB90E00E947D
:101190009003212F30E050E040E019A28E010F5D56
:1011A0001F4F8AE0882E912CA12CB12CCA01B901C5
:1011B000A50194010E948F0A605DF80162938F017E
:1011C000211531054105510589F7309761F00190EE
:1011D0000020E9F73197AF01401B510BB80187E9B7
:1011E00091E00E94A0020E944F0561E080E00E9411
:1011F000CC012FB7F89480914B0190914C01A091B4
:101200004D01B0914E012FBF80934601909347014D
:10121000A0934801B09349012FB7F89480914B01F6
:1012200090914C01A0914D01B0914E012FBF409182
:101230004601509147016091480170914901841B1A
:10124000950BA60BB70B813D9740A105B105B8F0F2
:1012500085EB90E00E9457052FB7F89480914B01E1
:1012600090914C01A0914D01B0914E012FBF809300
:10127000460190934701A0934801B0934901E114BE
:10128000F10409F46ACF0E940D03882309F465CFA5
:101290000E94000062CF6AE070E080E090E00E946F
:1012A0006E0260E080E00E94CC01B6CF0F931F93E6
:1012B000CF93DF938230910510F482E090E0E091CB
:1012C0004802F091490230E020E0B0E0A0E0309721
:1012D00099F42115310509F44AC0281B390B243033
:1012E0003105D8F58A819B816115710589F1FB0172
:1012F00093838283FE0111C0408151810281138159
:1013000048175907E0F04817590799F4109761F00A
:1013100012960C93129713961C933296CF01DF917D
:10132000CF911F910F9108950093480210934902A5
:10133000F4CF2115310551F04217530738F0A901B8
:10134000DB019A01BD01DF01F801C1CFEF01F9CF47
:101350009093490280934802CDCFFE01E20FF31F24
:10136000819391932250310939832883D7CF2091DB
:10137000460230914702232B41F420910201309123
:1013800003013093470220934602209100013091DF
:1013900001012115310541F42DB73EB740910401FB
:1013A00050910501241B350BE0914602F091470254
:1013B000E217F307A0F42E1B3F0B2817390778F02C
:1013C000AC014E5F5F4F2417350748F04E0F5F1F8B
:1013D0005093470240934602819391939FCFF0E050
:1013E000E0E09CCFCF93DF930097E9F0FC013297C8
:1013F00013821282A0914802B0914902ED0130E0BF
:1014000020E01097A1F420813181820F931F209159
:101410004602309147022817390709F061C0F0935E
:101420004702E0934602DF91CF910895EA01CE177B
:10143000DF07E8F54A815B819E0141155105B1F74F
:10144000E901FB83EA8349915991C40FD51FEC1739
:10145000FD0761F4808191810296840F951FE90157
:1014600099838883828193819B838A83F0E0E0E083
:1014700012968D919C9113970097B9F52D913C91FF
:101480001197CD010296820F931F20914602309151
:1014900047022817390739F6309751F5109249025B
:1014A00010924802B0934702A0934602BCCFD38368
:1014B000C28340815181840F951FC817D90761F4F9
:1014C0004E5F5F4F88819981480F591F5183408338
:1014D0008A819B81938382832115310509F0B0CFE6
:1014E000F0934902E09348029ECFFD01DC01C0CF9A
:1014F00013821282D7CF97FB072E16F4009407D0E1
:1015000077FD09D00E94B10A07FC05D03EF4909502
:1015100081959F4F0895709561957F4F0895A1E241
:101520001A2EAA1BBB1BFD010DC0AA1FBB1FEE1F5D
:10153000FF1FA217B307E407F50720F0A21BB30BA8
:10154000E40BF50B661F771F881F991F1A9469F724
:1015500060957095809590959B01AC01BD01CF0180
:101560000895AA1BBB1B51E107C0AA1FBB1FA617EA
:10157000B70710F0A61BB70B881F991F5A95A9F73C
:1015800080959095BC01CD010895EE0FFF1F059049
:0A159000F491E02D0994F894FFCFC8
:10159A0000004A028000000000004303A002D002BB
:1015AA00AB030103DF02F302000000001301A002F3
:1015BA00CD0212016F018701FA00000000006305E5
:1015CA001C051105B404A804EA03E403E103D603E5
:0615DA00CB030D0A000026
:00000001FF
