:100000000C947D000C94A5000C94A5000C94FF05A5
:100010000C94FF050C94FF050C94A5000C94A5000E
:100020000C94A5000C94A5000C94A5000C94A500BC
:100030000C94A5000C94A5000C94A5000C94A500AC
:100040000C9477060C94A5000C94E7060C94C1065A
:100050000C94A5000C94A5000C94A5000C94A5008C
:100060000C94A5000C94A5005253343835536F639B
:100070006B65743A3A73657475702063616C6C6576
:1000800064206265666F726520696E697469616C6F
:10009000697A65640053656E64696E6720000000CC
:1000A0000000240027002A000000000800020100D0
:1000B0000003040700000000000000000000000032
:1000C00023002600290000000000250028002B0046
:1000D00004040404040404040202020202020303EE
:1000E00003030303010204081020408001020408F6
:1000F0001020010204081020190711241FBECFEFA1
:10010000D8E0DEBFCDBF11E0A0E0B1E0EEEEF4E15B
:1001100002C005900D92A634B107D9F722E0A6E4FB
:10012000B1E001C01D92A139B207E1F710E0CDE7BF
:10013000D0E004C02197FE010E946F0ACC37D1079E
:10014000C9F70E94F9070C94750A0C94000080917D
:100150007B0290917C02DC01ED91FC910284F3859D
:10016000E02D099480917B0290917C02DC01ED915D
:10017000FC910084F185E02D0994A0917B02B0915F
:100180007C02ED91FC9111970190F081E02D682F98
:10019000CD010994FC0190E08CE8615088F0519108
:1001A00048E0792F7527292F30E035952795922F34
:1001B00070FF02C0982F92275695415091F7EDCFCE
:1001C000892F08952091DC013091DD01281739072E
:1001D00071F49091DB018091DA01981741F0E09180
:1001E000DB01F0E0E656FE4F808190E008958FEF4E
:1001F0009FEF08950895EF92FF920F931F93CF936F
:10020000DF93DC015C96ED90FC905D97E114F104C6
:1002100079F481E090E013969C938E93129790E08E
:1002200080E0DF91CF911F910F91FF90EF900895A3
:100230005196ED91FC91529750968C915097982F32
:1002400090950FB75E962C915E97122F127021FD3C
:100250006095F8942081112319F1282B2083E70160
:100260002197F1F728E0462F50E0308160FF1AC057
:10027000382B3083E7012197F1F7BA01759567951F
:10028000215089F7112381F08081892380830FBF5A
:100290005C968D919C910197F1F781E090E0C1CF40
:1002A0002923DCCF3923E5CF9081892BEFCF209113
:1002B000DC013091DD012817390771F48091DA01F2
:1002C0002091DB0190E0805C9F4F821B910960E4EC
:1002D00070E00E94250A089590E080E00895209142
:1002E000DC013091DD0128173907B9F49091DB0169
:1002F0008091DA01981789F0E091DB01F0E0E65691
:10030000FE4F80812091DB0130E02F5F3F4F2F7344
:1003100033272093DB0190E008958FEF9FEF08953E
:100320000F931F93CF938C01C62F262F30E0C90166
:1003300044E0959587954A95E1F79FE08927207FCE
:10034000D8011496ED91FC91822B09958C2F829502
:10035000807FC095CF70D8011496ED91FC918C2BC5
:10036000CF911F910F91099490E0FC01E855FF4F48
:100370002491FC01EC51FF4F3491FC01E053FF4FFD
:10038000E491EE23C9F0222339F0233001F1A8F4DF
:10039000213019F1223029F1F0E0EE0FFF1FEA536E
:1003A000FF4FA591B4918FB7F894EC91611126C0DD
:1003B00030953E233C938FBF08952730A9F0283015
:1003C000C9F0243049F7809180008F7D03C080916F
:1003D00080008F7780938000DFCF84B58F7784BDD6
:1003E000DBCF84B58F7DFBCF8091B0008F7780937A
:1003F000B000D2CF8091B0008F7DF9CF3E2BDACF05
:10040000CF93DF9390E0FC01EC51FF4F2491805398
:100410009F4FFC0184918823D1F090E0880F991FB1
:10042000FC01E256FF4FA591B491FC01EA53FF4F46
:10043000C591D49161110EC09FB7F8948C91E22FB1
:10044000E0958E238C932881E223E8839FBFDF9180
:10045000CF9108958FB7F894EC91E22BEC938FBF76
:10046000F6CF3FB7F8948091960190919701A091B3
:100470009801B091990126B5A89B05C02F3F19F0AE
:100480000196A11DB11D3FBFBA2FA92F982F882714
:10049000BC01CD01620F711D811D911D42E0660FEF
:1004A000771F881F991F4A95D1F708958F929F92C1
:1004B000AF92BF92CF92DF92EF92FF924B015C011D
:1004C0000E9431026B017C010E9431026C197D098E
:1004D0008E099F09683E734081059105A8F321E0CC
:1004E000821A9108A108B10888EEC80E83E0D81ED0
:1004F000E11CF11C81149104A104B10429F7FF90BF
:10050000EF90DF90CF90BF90AF909F908F90089525
:1005100047505109FC0150874783695F7F4F7683BD
:100520006583CB010895AF92BF92CF92DF92EF9295
:10053000FF920F931F93CF93DF936C017B018B018D
:10054000040F151FEB015E01AE18BF08C017D107DD
:1005500059F06991D601ED91FC910190F081E02D67
:10056000C6010995892B79F7C501DF91CF911F91BC
:100570000F91FF90EF90DF90CF90BF90AF900895D4
:1005800090E080E00895FC01538D448D252F30E0EC
:10059000842F90E0821B930B541710F0CF96089590
:1005A00001970895FC01918D828D981761F0A28DBD
:1005B000AE0FBF2FB11D5D968C91928D9F5F9F7383
:1005C000928F90E008958FEF9FEF0895FC01918D39
:1005D000828D981731F0828DE80FF11D858D90E0A6
:1005E00008958FEF9FEF0895FC01918D228D892F43
:1005F00090E0805C9F4F821B91098F73992708952B
:100600008EED91E00E94F40221E0892B09F420E0B4
:10061000822F089580E090E0892B29F00E9400034A
:1006200081110C9400000895FC01A48DA80FB92F2E
:10063000B11DA35ABF4F2C91848D90E001968F730A
:100640009927848FA689B7892C93A089B1898C9129
:10065000837080648C93938D848D981306C0028878
:10066000F389E02D80818F7D80830895EF92FF9242
:100670000F931F93CF93DF93EC0181E0888F9B8DC5
:100680008C8D98131AC0E889F989808185FF15C07F
:100690009FB7F894EE89FF896083E889F9898081A2
:1006A0008370806480839FBF81E090E0DF91CF9171
:1006B0001F910F91FF90EF900895F62E0B8D10E093
:1006C0000F5F1F4F0F731127E02E8C8D8E110CC002
:1006D0000FB607FCFACFE889F989808185FFF5CF4D
:1006E000CE010E941403F1CFEB8DEC0FFD2FF11D15
:1006F000E35AFF4FF0829FB7F8940B8FEA89FB898A
:1007000080818062CFCF0F931F93CF93DF938C01B3
:10071000D0E0C0E0F801EC0FFD1F6491662341F0CA
:100720008EED91E00E943603892B11F02196F2CFD5
:10073000CE01DF91CF911F910F910895CF93DF9359
:10074000EC01888D8823B9F0AA89BB89E889F989E9
:100750008C9185FD03C0808186FD0DC00FB607FC1E
:10076000F7CF8C9185FFF2CF808185FFEDCFCE0151
:100770000E941403E9CFDF91CF910895DC01ED9140
:10078000FC910684F785E02D0995FC018481958113
:100790000895DC01ED91FC910684F785E02D099523
:1007A000FC01828193810895CB0107970895DC01B4
:1007B0001E96ED91FC9181890895AF92BF92CF92E0
:1007C000DF92EF92FF920F931F93CF93DF935C0121
:1007D0006B017A01DC011E96CD91DC918E819F81A7
:1007E000892B09F4A2C08A819B81892B09F49DC0C1
:1007F00088819981892B09F498C001E0EA81FB8105
:100800000995181619060CF090C0E881F981099530
:100810009C0133272230310531F123303105B9F104
:100820002B85222359F39C0194E0359527959A95C1
:10083000E1F72F70332780958F708217130649F1E7
:100840001B861A86198A1C8A1D8A1E8A1F8A8C8515
:100850009D85AE85BF850196A11DB11D8C879D87A5
:10086000AE87BF87CBCF0B87188A198A0B8B2FB720
:10087000F8948091920190919301A0919401B0918C
:1008800095012FBF8C8B9D8BAE8BBF8BB7CF088B09
:10089000B5CF8B89882319F02A8B1B8AAFCF1A8991
:1008A0001295107F122B1A8B0B8B698988898823EC
:1008B00021F18E819F810E94CA001813C1CF0A873F
:1008C000D5011E96ED91FC910680F781E02DBFEFDA
:1008D000CB16DB0611F5818190E0D7018D939C93B7
:1008E000CF010796DF91CF911F910F91FF90EF906D
:1008F000DF90CF90BF90AF900895862F90E028852D
:100900003985821793070CF09BCFEE81FF816F5FD3
:10091000698BE80FF91F108371CF848195818F3F18
:100920009807C9F28C159D05B1F2F701118210826A
:1009300090E080E0D7CFAB01DC011A966D917C91FD
:100940001B97ED91FC910284F385E02D0994AF9201
:10095000BF92CF92DF92EF92FF920F931F93CF93AC
:10096000DF938C01F22EEA012797DC011D968C9112
:100970001D9791E0980F1D969C931D97888329835E
:100980001A968D919C911B979B838A837D836C83A0
:100990001E8261E01C968C910E94B401F801C6840D
:1009A000D784F7E0FF0ED6011496ED91FC913097B5
:1009B000E1F082E009955E01E12CEF1440F4F501CD
:1009C00061915F01C6010E949001E394F6CFD601C8
:1009D0001496ED91FC9183E009956F2DCE010E9454
:1009E000CA00682FC6010E94900160E0F80184856A
:1009F000DF91CF911F910F91FF90EF90DF90CF90FB
:100A0000BF90AF900C94B40181E020917B023091B3
:100A10007C02232B09F480E008958C0161E08DE0D5
:100A20000E94000260E08DE00E94B401D0E0C0E0CE
:100A30006AEF70E080E090E00E94560261E08DE095
:100A40000E94B4016AEF70E080E090E00E945602DC
:100A500060E08DE00E94B40121960C171D0741F75C
:100A600060ED77E080E090E00E945602DBCF42E04C
:100A700050E062E471E08EED91E00C949302EF920D
:100A8000FF920F931F93CF93DF937C01E0917B0242
:100A9000F0917C02309751F488E690E00E94830345
:100AA0000E94370581E190E00E940D05138E128EA1
:100AB000118E108E178A168A8BE890E0958F848F9E
:100AC0008485863108F03DC024E330E0378B268BE7
:100AD00029E830E0318F208F2EE530E0338F228FF0
:100AE00090916800883008F47BC021E08E3008F4D3
:100AF00020E081E001C0880F2A95EAF7892B8093D6
:100B0000680094852DE630E0983050F02BE630E018
:100B10009E3030F02CE630E0963110F030E020E0EE
:100B2000348B238B292F30E0983008F05BC081E0B4
:100B300001C0880F9A95EAF7858B848D958D019772
:100B4000F1F7828D938D892B29F1A091DC01B09171
:100B5000DD01EA17FB07F1F0109759F053962D913C
:100B60003C915497E901988155968C918095892301
:100B70008883868D8E7F868F1092DA011092DB013A
:100B8000F093DD01E093DC01A389B4898C91958910
:100B9000892B8C93F70106851785D80118968D91BE
:100BA0009C910E940009E8019F838E831B861A8610
:100BB000198A1C8A1D8A1E8A1F8A1C861D861E860B
:100BC0001F8661E0E7018C850E94000260E08C8551
:100BD000DF91CF911F910F91FF90EF900C94B40192
:100BE00084E08CCF9E3040F42850310981E001C070
:100BF000880F2A95EAF7A0CF2E503109F7CF1F9220
:100C00000F920FB60F9211242F933F934F935F9340
:100C10006F937F938F939F93AF93BF93EF93FF93C4
:100C2000E091DC01F091DD01309749F0A685B785B0
:100C30008585968D91FF14C09C918923A1F4FF9125
:100C4000EF91BF91AF919F918F917F916F915F9144
:100C50004F913F912F910F900FBE0F901F901895BD
:100C60009C91892361F7A389B4899C91858980959A
:100C700089238C93868997890197F1F7608D718D0F
:100C8000A685B785558538E020E0CB010197F1F7BF
:100C9000822F90E095958795282F4C91452309F058
:100CA0002068315091F7868D81FD20958091DA0181
:100CB00090E001968F7399273091DB01381799F0F6
:100CC000A091DA01B0E0A656BE4F2C938093DA01D2
:100CD000828D938D0197F1F7A389B4898C919589C1
:100CE000892B8C93ACCF868D8160868FF1CF1F923C
:100CF0000F920FB60F9211242F933F938F939F93D0
:100D0000AF93BF938091920190919301A091940130
:100D1000B09195013091910123E0230F2D3758F5C3
:100D20000196A11DB11D2093910180939201909392
:100D30009301A0939401B0939501809196019091B5
:100D40009701A0919801B09199010196A11DB11D43
:100D50008093960190939701A0939801B093990185
:100D6000BF91AF919F918F913F912F910F900FBEA7
:100D70000F901F90189526E8230F0296A11DB11D14
:100D8000D2CF1F920F920FB60F9211242F933F9341
:100D90004F935F936F937F938F939F93AF93BF9383
:100DA000EF93FF938EED91E00E941403FF91EF917A
:100DB000BF91AF919F918F917F916F915F914F9173
:100DC0003F912F910F900FBE0F901F9018951F927B
:100DD0000F920FB60F9211242F938F939F93EF933F
:100DE000FF93E091EE01F091EF018081E091F40139
:100DF000F091F50182FD1BC090818091F7018F5F1A
:100E00008F732091F801821741F0E091F701F0E033
:100E1000E252FE4F958F8093F701FF91EF919F91E2
:100E20008F912F910F900FBE0F901F90189580817A
:100E3000F4CFCF92DF92EF92FF92CF93DF93109295
:100E4000E1011092E00198EEC92E93E0D92EE12C39
:100E5000F12CC092E201D092E301E092E401F09221
:100E6000E5018AE091E09093DF018093DE0185EC5B
:100E700090E09093EB018093EA0184EC90E09093F2
:100E8000ED018093EC0180EC90E09093EF01809372
:100E9000EE0181EC90E09093F1018093F00182ECFF
:100EA00090E09093F3018093F20186EC90E09093B0
:100EB000F5018093F4011092F7011092F80110925D
:100EC000F9011092FA018EE291E090937E028093F4
:100ED0007D0210927C0210927B028FE190E00E94D2
:100EE0000009EC011B821A82CC82DD82EE82FF8235
:100EF0008CE191E0998388831F8A1E8A198E188E4F
:100F00001B8E1A8E1D8E1C8E6E8D6E7F6D7F6E8F6A
:100F10006695617081E0682787E00E94B40161E016
:100F200087E00E940002EBEEF0E0E491E88BE7ED51
:100F3000F0E0E491F0E0EE0FFF1FEA53FF4F8591E0
:100F400094919A8B898B60E084E00E9400028E8DE0
:100F500081FD04C061E084E00E94B40184E08C87DC
:100F6000E8EEF0E0E491ED87E4EDF0E0E491F0E00C
:100F7000EE0FFF1FE454FF4F859194919F878E875A
:100F8000D0937C02C0937B0282E08093890281E04F
:100F900090E0909388028093870280E48093860299
:100FA00061E082E00E94000288E190E00E94000976
:100FB000FC018091860227EA30E03183208322EB16
:100FC00030E0338322832DEB30E035832483178296
:100FD000168290E091878087F0938C02E0938B02D9
:100FE00010928A02DF91CF91FF90EF90DF90CF9027
:100FF0000895CF93DF93CDB7DEB7A1970FB6F894DE
:10100000DEBF0FBECDBF789484B5826084BD84B549
:10101000816084BD85B5826085BD85B5816085BDF3
:1010200080916E00816080936E00109281008091AB
:101030008100826080938100809181008160809333
:101040008100809180008160809380008091B10058
:1010500084608093B1008091B00081608093B00083
:1010600080917A00846080937A0080917A00826017
:1010700080937A0080917A00816080937A008091D9
:101080007A00806880937A001092C100E091EE01AE
:10109000F091EF0182E08083E091EA01F091EB01B1
:1010A0001082E091EC01F091ED018FEC80831092C1
:1010B000F601E091F201F091F30186E08083E09186
:1010C000F001F091F101808180618083E091F00175
:1010D000F091F101808188608083E091F001F091CE
:1010E000F101808180688083E091F001F091F1014D
:1010F00080818F7D808361E08DE00E9400028DE71A
:1011000092E00E943F0589E390E0909385028093EE
:1011100084028DE491E09093830280938202909305
:10112000900180938F0184E5D82E9AE0892E912C2E
:10113000A12CB12CCC24C39420E0E22E20E0F22E8E
:10114000E0918F01F0919001D08280918E0111E0A9
:10115000180F10938E01818385E990E00E9483032C
:10116000212F30E050E040E019A28E010F5D1F4FAB
:10117000CA01B901A50194010E94390A605DF80114
:1011800062938F01211531054105510589F730978B
:1011900061F001900020E9F73197AF01401B510B3E
:1011A000B8018EED91E00E9493020E9437054091B4
:1011B0008F015091900122E061E070E08DE792E0B4
:1011C0000E94A70480918D018C2580938D0161E0A0
:1011D000811101C060E08DE00E94B40168EE73E00F
:1011E00080E090E00E945602E114F10409F4A8CFD7
:1011F0000E940003882309F4A3CF0E940000A0CF1F
:101200000F931F93CF93DF938230910510F482E008
:1012100090E0E0918F02F091900230E020E0B0E0A9
:10122000A0E0309799F42115310509F44AC0281B34
:10123000390B24303105D8F58A819B816115710500
:1012400089F1FB0193838283FE0111C040815181AA
:101250000281138148175907E0F04817590799F49C
:10126000109761F012960C93129713961C93329676
:10127000CF01DF91CF911F910F91089500938F02BD
:1012800010939002F4CF2115310551F04217530706
:1012900038F0A901DB019A01BD01DF01F801C1CFDE
:1012A000EF01F9CF9093900280938F02CDCFFE0192
:1012B000E20FF31F819391932250310939832883E0
:1012C000D7CF20918D0230918E02232B41F42091B3
:1012D00002013091030130938E0220938D02209100
:1012E0000001309101012115310541F42DB73EB7C0
:1012F0004091040150910501241B350BE0918D02B2
:10130000F0918E02E217F307A0F42E1B3F0B281773
:10131000390778F0AC014E5F5F4F2417350748F06E
:101320004E0F5F1F50938E0240938D0281939193D5
:101330009FCFF0E0E0E09CCFCF93DF930097E9F000
:10134000FC01329713821282A0918F02B091900219
:10135000ED0130E020E01097A1F420813181820F6F
:10136000931F20918D0230918E022817390709F0C2
:1013700061C0F0938E02E0938D02DF91CF910895CA
:10138000EA01CE17DF07E8F54A815B819E0141152E
:101390005105B1F7E901FB83EA8349915991C40FE3
:1013A000D51FEC17FD0761F4808191810296840FAF
:1013B000951FE90199838883828193819B838A8326
:1013C000F0E0E0E012968D919C9113970097B9F5AB
:1013D0002D913C911197CD010296820F931F209180
:1013E0008D0230918E022817390739F6309751F562
:1013F0001092900210928F02B0938E02A0938D02F1
:10140000BCCFD383C28340815181840F951FC817FD
:10141000D90761F44E5F5F4F88819981480F591F4A
:10142000518340838A819B81938382832115310577
:1014300009F0B0CFF0939002E0938F029ECFFD01B0
:10144000DC01C0CF13821282D7CF97FB072E16F490
:10145000009407D077FD09D00E945B0A07FC05D0F5
:101460003EF4909581959F4F0895709561957F4FBB
:101470000895A1E21A2EAA1BBB1BFD010DC0AA1FD5
:10148000BB1FEE1FFF1FA217B307E407F50720F0ED
:10149000A21BB30BE40BF50B661F771F881F991F68
:1014A0001A9469F760957095809590959B01AC01B1
:1014B000BD01CF010895AA1BBB1B51E107C0AA1FA4
:1014C000BB1FA617B70710F0A61BB70B881F991FE5
:1014D0005A95A9F780959095BC01CD010895EE0F1E
:0E14E000FF1F0590F491E02D0994F894FFCFC2
:1014EE000000910280000000000036039302C30248
:1014FE009E03F402D202E60200000000FB009302FB
:10150E00C002FA0057016F01E200000000003F0523
:10151E0004058802A7049B04DD03D703D403C90383
:06152E00BE030D0A0000DF
:00000001FF
