:100000000C949A000C94C2000C94C2000C947606D6
:100010000C9476060C9476060C94C2000C94C200E4
:100020000C94C2000C94C2000C94C2000C94C20048
:100030000C94C2000C94C2000C94C2000C94C20038
:100040000C94EE060C94C2000C945E070C943807D6
:100050000C94C2000C94C2000C94C2000C94C20018
:100060000C94C2000C94C2005253343835536F6361
:100070006B65743A3A73657475702063616C6C6576
:1000800064206265666F726520696E697469616C6F
:10009000697A6564002A2A2A205253343835536F0E
:1000A000636B6574546F6F6C20696E697469616C01
:1000B000697A6564202A2A2A003A20002A2052659B
:1000C000636569766564206461746120002A205349
:1000D000656E64696E672000000000002400270040
:1000E0002A000000000800020100000304070000CD
:1000F000000000000000000000002300260029008E
:1001000000000000250028002B000404040404045F
:1001100004040202020202020303030303030102B6
:100120000408102040800102040810200102040885
:100130001020900711241FBECFEFD8E0DEBFCDBF47
:1001400011E0A0E0B1E0EEE0F6E102C005900D9212
:10015000A634B107D9F722E0A6E4B1E001C01D92B0
:10016000A539B207E1F710E0CAE9D0E004C0219751
:10017000FE010E94FF0AC939D107C9F70E94700821
:100180000C94050B0C94000080917F0290918002EA
:10019000DC01ED91FC910284F385E02D09948091BE
:1001A0007F0290918002DC01ED91FC910084F18549
:1001B000E02D0994A0917F02B0918002ED91FC9115
:1001C00011970190F081E02D682FCD010994FC0179
:1001D00090E08CE8615088F0519148E0792F7527C4
:1001E000292F30E035952795922F70FF02C0982F68
:1001F00092275695415091F7EDCF892F0895209180
:10020000DF013091E0012817390771F49091DE0188
:100210008091DD01981741F0E091DE01F0E0E356B6
:10022000FE4F808190E008958FEF9FEF089508952D
:10023000EF92FF920F931F93CF93DF93DC015C96B5
:10024000ED90FC905D97E114F10479F481E090E089
:1002500013969C938E93129790E080E0DF91CF915C
:100260001F910F91FF90EF9008955196ED91FC91A1
:10027000529750968C915097982F90950FB75E9605
:100280002C915E97122F127021FD6095F8942081B9
:10029000112319F1282B2083E7012197F1F728E09A
:1002A000462F50E0308160FF1AC0382B3083E701C1
:1002B0002197F1F7BA0175956795215089F71123B8
:1002C00081F08081892380830FBF5C968D919C9102
:1002D0000197F1F781E090E0C1CF2923DCCF3923EA
:1002E000E5CF9081892BEFCF2091DF013091E001A4
:1002F0002817390771F48091DD012091DE0190E02B
:10030000805C9F4F821B910960E470E00E94B50AF7
:10031000089590E080E008952091DF013091E001A0
:1003200028173907B9F49091DE018091DD01981703
:1003300089F0E091DE01F0E0E356FE4F80812091EC
:10034000DE0130E02F5F3F4F2F7333272093DE0114
:1003500090E008958FEF9FEF08950F931F93CF9331
:100360008C01C62F262F30E0C90144E09595879572
:100370004A95E1F79FE08927207FD8011496ED91F7
:10038000FC91822B09958C2F8295807FC095CF7030
:10039000D8011496ED91FC918C2BCF911F910F9168
:1003A000099490E0FC01EE51FF4F2491FC01E25EC4
:1003B000FE4F3491FC01E65FFE4FE491EE23C9F05D
:1003C000222339F0233001F1A8F4213019F1223031
:1003D00029F1F0E0EE0FFF1FE050FF4FA591B4911F
:1003E0008FB7F894EC91611126C030953E233C9371
:1003F0008FBF08952730A9F02830C9F0243049F77D
:10040000809180008F7D03C0809180008F778093E2
:100410008000DFCF84B58F7784BDDBCF84B58F7D3F
:10042000FBCF8091B0008F778093B000D2CF8091C6
:10043000B0008F7DF9CF3E2BDACFCF93DF9390E0E2
:10044000FC01E25EFE4F2491865F9E4FFC01849189
:100450008823D1F090E0880F991FFC01E852FF4FEC
:10046000A591B491FC01E050FF4FC591D491611169
:100470000EC09FB7F8948C91E22FE0958E238C9359
:100480002881E223E8839FBFDF91CF9108958FB742
:10049000F894EC91E22BEC938FBFF6CF3FB7F89432
:1004A0008091990190919A01A0919B01B0919C013A
:1004B00026B5A89B05C02F3F19F00196A11DB11DBF
:1004C0003FBFBA2FA92F982F8827BC01CD01620FFB
:1004D000711D811D911D42E0660F771F881F991FB6
:1004E0004A95D1F708958F929F92AF92BF92CF9283
:1004F000DF92EF92FF924B015C010E944E026B0172
:100500007C010E944E026C197D098E099F09683E8C
:10051000734081059105A8F321E0821A9108A10892
:10052000B10888EEC80E83E0D81EE11CF11C8114CE
:100530009104A104B10429F7FF90EF90DF90CF90D0
:10054000BF90AF909F908F90089547505109FC0144
:1005500050874783695F7F4F76836583CB0108951A
:10056000AF92BF92CF92DF92EF92FF920F931F93C1
:10057000CF93DF936C017B018B01040F151FEB01FF
:100580005E01AE18BF08C017D10759F06991D601B6
:10059000ED91FC910190F081E02DC6010995892B28
:1005A00079F7C501DF91CF911F910F91FF90EF90E7
:1005B000DF90CF90BF90AF90089590E080E00895D5
:1005C000FC01538D448D252F30E0842F90E0821B59
:1005D000930B541710F0CF96089501970895FC01DE
:1005E000918D828D981761F0A28DAE0FBF2FB11D36
:1005F0005D968C91928D9F5F9F73928F90E008958E
:100600008FEF9FEF0895FC01918D828D981731F047
:10061000828DE80FF11D858D90E008958FEF9FEF9B
:100620000895FC01918D228D892F90E0805C9F4F71
:10063000821B91098F739927089581EE91E00E94A2
:10064000110321E0892B09F420E0822F089580E036
:1006500090E0892B29F00E941D0381110C94000069
:100660000895FC01A48DA80FB92FB11DA35ABF4F47
:100670002C91848D90E001968F739927848FA689A1
:10068000B7892C93A089B1898C91837080648C93F5
:10069000938D848D981306C00288F389E02D8081A4
:1006A0008F7D80830895EF92FF920F931F93CF93D6
:1006B000DF93EC0181E0888F9B8D8C8D98131AC09D
:1006C000E889F989808185FF15C09FB7F894EE8984
:1006D000FF896083E889F9898081837080648083E1
:1006E0009FBF81E090E0DF91CF911F910F91FF902C
:1006F000EF900895F62E0B8D10E00F5F1F4F0F73D4
:100700001127E02E8C8D8E110CC00FB607FCFACF8E
:10071000E889F989808185FFF5CFCE010E943103F8
:10072000F1CFEB8DEC0FFD2FF11DE35AFF4FF0825F
:100730009FB7F8940B8FEA89FB8980818062CFCFC5
:100740000F931F93CF93DF938C01D0E0C0E0F801AB
:10075000EC0FFD1F6491662341F081EE91E00E9451
:100760005303892B11F02196F2CFCE01DF91CF9167
:100770001F910F910895CF93DF93EC01888D88230B
:10078000B9F0AA89BB89E889F9898C9185FD03C0F4
:10079000808186FD0DC00FB607FCF7CF8C9185FFD9
:1007A000F2CF808185FFEDCFCE010E943103E9CFEA
:1007B000DF91CF910895DC01ED91FC910684F785DE
:1007C000E02D0995FC01848195810895DC01ED916E
:1007D000FC910684F785E02D0995FC0182819381C7
:1007E0000895CB0107970895DC011E96ED91FC91C9
:1007F00081890895AF92BF92CF92DF92EF92FF92DC
:100800000F931F93CF93DF935C016B017A01DC019F
:100810001E96CD91DC918E819F81892B09F4A2C017
:100820008A819B81892B09F49DC088819981892BBC
:1008300009F498C001E0EA81FB81099518161906B0
:100840000CF090C0E881F98109959C013327223092
:10085000310531F123303105B9F12B85222359F3CC
:100860009C0194E0359527959A95E1F72F703327F1
:1008700080958F708217130649F11B861A86198A94
:100880001C8A1D8A1E8A1F8A8C859D85AE85BF8520
:100890000196A11DB11D8C879D87AE87BF87CBCFE9
:1008A0000B87188A198A0B8B2FB7F89480919501C2
:1008B00090919601A0919701B09198012FBF8C8BD8
:1008C0009D8BAE8BBF8BB7CF088BB5CF8B89882321
:1008D00019F02A8B1B8AAFCF1A891295107F122B21
:1008E0001A8B0B8B69898889882321F18E819F81DE
:1008F0000E94E7001813C1CF0A87D5011E96ED911B
:10090000FC910680F781E02DBFEFCB16DB0611F5D9
:10091000818190E0D7018D939C93CF010796DF9161
:10092000CF911F910F91FF90EF90DF90CF90BF90EC
:10093000AF900895862F90E0288539858217930718
:100940000CF09BCFEE81FF816F5F698BE80FF91F81
:10095000108371CF848195818F3F9807C9F28C15E0
:100960009D05B1F2F7011182108290E080E0D7CFAF
:10097000AB01DC011A966D917C911B97ED91FC9176
:100980000284F385E02D0994AF92BF92CF92DF925B
:10099000EF92FF920F931F93CF93DF938C01F22E70
:1009A000EA012797DC011D968C911D9791E0980F25
:1009B0001D969C931D97888329831A968D919C91EF
:1009C0001B979B838A837D836C831E8261E01C96C8
:1009D0008C910E94D101F801C684D784F7E0FF0E04
:1009E000D6011496ED91FC913097E1F082E00995E3
:1009F0005E01E12CEF1440F4F50161915F01C60145
:100A00000E94AD01E394F6CFD6011496ED91FC91CE
:100A100083E009956F2DCE010E94E700682FC60183
:100A20000E94AD0160E0F8018485DF91CF911F91B4
:100A30000F91FF90EF90DF90CF90BF90AF900C940C
:100A4000D10181E020917F0230918002232B09F4B3
:100A500080E008958C0161E08DE00E941D0260E05D
:100A60008DE00E94D101D0E0C0E06AEF70E080E04C
:100A700090E00E94730261E08DE00E94D1016AEF74
:100A800070E080E090E00E94730260E08DE00E94E0
:100A9000D10121960C171D0741F760ED77E080E04A
:100AA00090E00E947302DBCF8F929F92AF92BF9231
:100AB0000F931F93CF93DF93CDB7DEB7A1970FB6F8
:100AC000F894DEBF0FBECDBF19A2423008F44AE051
:100AD0008E010F5D1F4F842E912CB12CA12CA501EE
:100AE00094010E94C90AE62FB901CA01EA3044F50F
:100AF000E05DD801EE938D01232B242B252B79F774
:100B000090E080E0109769F0FD0101900020E9F786
:100B10003197AF014A1B5B0BBD0181EE91E00E9452
:100B2000B002A1960FB6F894DEBF0FBECDBFDF9125
:100B3000CF911F910F91BF90AF909F908F9008958C
:100B4000E95CD7CF42E050E062E471E081EE91E0F1
:100B50000C94B002CF93DF930E94A003EC010E949B
:100B6000A2058C0F9D1FDF91CF910895EF92FF9208
:100B70000F931F93CF93DF937C01E0917F02F0915D
:100B80008002309751F410927E0288E690E00E9435
:100B9000AA0581E190E00E942A05138E128E118E23
:100BA000108E178A168A8BE890E0958F848F848543
:100BB000863108F03DC024E330E0378B268B29E8EE
:100BC00030E0318F208F2EE530E0338F228F9091EF
:100BD0006800883008F47BC021E08E3008F420E003
:100BE00081E001C0880F2A95EAF7892B809368007D
:100BF00094852DE630E0983050F02BE630E09E30C2
:100C000030F02CE630E0963110F030E020E0348B0C
:100C1000238B292F30E0983008F05BC081E001C0C1
:100C2000880F9A95EAF7858B848D958D0197F1F75A
:100C3000828D938D892B29F1A091DF01B091E00184
:100C4000EA17FB07F1F0109759F053962D913C915C
:100C50005497E901988155968C91809589238883D2
:100C6000868D8E7F868F1092DD011092DE01F093CB
:100C7000E001E093DF01A389B4898C919589892BE8
:100C80008C93F70106851785D80118968D919C9154
:100C90000E949009E8019F838E831B861A86198A19
:100CA0001C8A1D8A1E8A1F8A1C861D861E861F8618
:100CB00061E0E7018C850E941D0260E08C85DF9178
:100CC000CF911F910F91FF90EF900C94D10184E090
:100CD0008CCF9E3040F42850310981E001C0880F4C
:100CE0002A95EAF7A0CF2E503109F7CF1F920F9225
:100CF0000FB60F9211242F933F934F935F936F93EF
:100D00007F938F939F93AF93BF93EF93FF93E09164
:100D1000DF01F091E001309749F0A685B785858520
:100D2000968D91FF14C09C918923A1F4FF91EF91BE
:100D3000BF91AF919F918F917F916F915F914F91F3
:100D40003F912F910F900FBE0F901F9018959C917F
:100D5000892361F7A389B4899C918589809589232A
:100D60008C93868997890197F1F7608D718DA6859F
:100D7000B785558538E020E0CB010197F1F7822F48
:100D800090E095958795282F4C91452309F0206890
:100D9000315091F7868D81FD20958091DD0190E0A5
:100DA00001968F7399273091DE01381799F0A09141
:100DB000DD01B0E0A356BE4F2C938093DD01828D00
:100DC000938D0197F1F7A389B4898C919589892B2B
:100DD0008C93ACCF868D8160868FF1CF1F920F925E
:100DE0000FB60F9211242F933F938F939F93AF933E
:100DF000BF938091950190919601A0919701B09138
:100E000098013091940123E0230F2D3758F5019676
:100E1000A11DB11D2093940180939501909396019B
:100E2000A0939701B09398018091990190919A01B4
:100E3000A0919B01B0919C010196A11DB11D8093D1
:100E4000990190939A01A0939B01B0939C01BF914B
:100E5000AF919F918F913F912F910F900FBE0F9067
:100E60001F90189526E8230F0296A11DB11DD2CF21
:100E70001F920F920FB60F9211242F933F934F930F
:100E80005F936F937F938F939F93AF93BF93EF93F2
:100E9000FF9381EE91E00E943103FF91EF91BF91AA
:100EA000AF919F918F917F916F915F914F913F9102
:100EB0002F910F900FBE0F901F9018951F920F92B9
:100EC0000FB60F9211242F938F939F93EF93FF935D
:100ED000E091F101F091F2018081E091F701F09150
:100EE000F80182FD1BC090818091FA018F5F8F73A2
:100EF0002091FB01821741F0E091FA01F0E0EF51FF
:100F0000FE4F958F8093FA01FF91EF919F918F9102
:100F10002F910F900FBE0F901F9018958081F4CFE6
:100F2000CF92DF92EF92FF92CF93DF931092E40182
:100F30001092E30198EEC92E93E0D92EE12CF12C0A
:100F4000C092E501D092E601E092E701F092E8015B
:100F50008AE091E09093E2018093E10185EC90E0DA
:100F60009093EE018093ED0184EC90E09093F0017A
:100F70008093EF0180EC90E09093F2018093F10177
:100F800081EC90E09093F4018093F30182EC90E087
:100F90009093F6018093F50186EC90E09093F80130
:100FA0008093F7011092FA011092FB011092FC015C
:100FB0001092FD018EE291E0909382028093810273
:100FC0001092800210927F028FE190E00E949009BF
:100FD000EC011B821A82CC82DD82EE82FF828CE1E0
:100FE00091E0998388831F8A1E8A198E188E1B8E22
:100FF0001A8E1D8E1C8E6E8D6E7F6D7F6E8F669528
:10100000617081E0682784E00E94D10161E084E0A2
:101010000E941D02E2E2F1E0E491E88BEEE0F1E0F3
:10102000E491F0E0EE0FFF1FE050FF4F85919491A7
:101030009A8B898B60E087E00E941D028E8D81FD76
:1010400004C061E087E00E94D10187E08C87E5E27F
:10105000F1E0E491ED87E1E1F1E0E491F0E0EE0F01
:10106000FF1FEA50FF4F859194919F878E87D09301
:101070008002C0937F0282E080938D0280E890E03E
:1010800090938C0280938B0280E480938A0261E0CB
:1010900082E00E941D0288E190E00E949009FC011C
:1010A00080918A0224EC30E0318320832FEC30E001
:1010B000338322832AED30E035832483178216821E
:1010C00090E091878087F0939002E0938F021092D6
:1010D0008E02DF91CF91FF90EF90DF90CF90089537
:1010E000CF93DF9300D0CDB7DEB7789484B582601C
:1010F00084BD84B5816084BD85B5826085BD85B5BC
:10110000816085BD80916E00816080936E00109239
:1011100081008091810082608093810080918100B4
:101120008160809381008091800081608093800045
:101130008091B10084608093B1008091B0008160A3
:101140008093B00080917A00846080937A008091CF
:101150007A00826080937A0080917A008160809327
:101160007A0080917A00806880937A001092C100A2
:10117000E091F101F091F20182E08083E091ED01D4
:10118000F091EE011082E091EF01F091F00180E129
:1011900080831092F901E091F501F091F60186E06B
:1011A0008083E091F301F091F4018081806180837C
:1011B000E091F301F091F401808188608083E091F7
:1011C000F301F091F401808180688083E091F30164
:1011D000F091F40180818F7D808361E08DE00E9439
:1011E0001D0281E892E00E94B60589E390E09093A9
:1011F0008902809388028DE491E090938702809326
:10120000860290938F0180938E0110927E0285E971
:1012100090E00E94AA0504E580E0E82E80E0F82E28
:10122000DD24D3948FB7F894809095019090960127
:10123000A0909701B09098018FBF809190019091FC
:101240009101A0919201B0919301A5019401281BF5
:10125000390B4A0B5B0BDA01C901883E9340A105AB
:10126000B10570F1E0918E01F0918F0100838091C2
:101270008D0111E0180F10938D01818310927E0271
:101280008DEC90E00E94A003612F70E090E080E080
:101290004AE00E9454050E94A20540918E0150919F
:1012A0008F0122E06FEF7FEF81E892E00E94C4049B
:1012B0008092900190929101A0929201B09293013C
:1012C000BE016F5F7F4F81E892E00E94B804892BD6
:1012D000A9F0D0927E028CEB90E00E94A00369817D
:1012E0007A8190E080E04AE00E94540589EB90E02A
:1012F0000E94A00310927E020E94A2056AE070E0A4
:1013000080E090E00E947302E114F10409F48ACFB6
:101310000E941D03882309F485CF0E94000082CF1C
:101320000F931F93CF93DF938230910510F482E0E7
:1013300090E0E0919302F091940230E020E0B0E080
:10134000A0E0309799F42115310509F44AC0281B13
:10135000390B24303105D8F58A819B8161157105DF
:1013600089F1FB0193838283FE0111C04081518189
:101370000281138148175907E0F04817590799F47B
:10138000109761F012960C93129713961C93329655
:10139000CF01DF91CF911F910F9108950093930298
:1013A00010939402F4CF2115310551F042175307E1
:1013B00038F0A901DB019A01BD01DF01F801C1CFBD
:1013C000EF01F9CF9093940280939302CDCFFE0169
:1013D000E20FF31F819391932250310939832883BF
:1013E000D7CF2091910230919202232B41F420918A
:1013F00002013091030130939202209391022091D7
:101400000001309101012115310541F42DB73EB79E
:101410004091040150910501241B350BE09191028C
:10142000F0919202E217F307A0F42E1B3F0B28174E
:10143000390778F0AC014E5F5F4F2417350748F04D
:101440004E0F5F1F509392024093910281939193AC
:101450009FCFF0E0E0E09CCFCF93DF930097E9F0DF
:10146000FC01329713821282A0919302B0919402F0
:10147000ED0130E020E01097A1F420813181820F4E
:10148000931F20919102309192022817390709F099
:1014900061C0F0939202E0939102DF91CF910895A1
:1014A000EA01CE17DF07E8F54A815B819E0141150D
:1014B0005105B1F7E901FB83EA8349915991C40FC2
:1014C000D51FEC17FD0761F4808191810296840F8E
:1014D000951FE90199838883828193819B838A8305
:1014E000F0E0E0E012968D919C9113970097B9F58A
:1014F0002D913C911197CD010296820F931F20915F
:101500009102309192022817390739F6309751F538
:101510001092940210929302B0939202A0939102BF
:10152000BCCFD383C28340815181840F951FC817DC
:10153000D90761F44E5F5F4F88819981480F591F29
:10154000518340838A819B81938382832115310556
:1015500009F0B0CFF0939402E09393029ECFFD0187
:10156000DC01C0CF13821282D7CF97FB072E16F46F
:10157000009407D077FD09D00E94EB0A07FC05D044
:101580003EF4909581959F4F0895709561957F4F9A
:101590000895A1E21A2EAA1BBB1BFD010DC0AA1FB4
:1015A000BB1FEE1FFF1FA217B307E407F50720F0CC
:1015B000A21BB30BE40BF50B661F771F881F991F47
:1015C0001A9469F760957095809590959B01AC0190
:1015D000BD01CF010895AA1BBB1B51E107C0AA1F83
:1015E000BB1FA617B70710F0A61BB70B881F991FC4
:1015F0005A95A9F780959095BC01CD010895EE0FFD
:0E160000FF1F0590F491E02D0994F894FFCFA0
:10160E00000095028000000000005303B002E002CB
:10161E00BB031103EF020303000000001801B00228
:10162E00DD02170174018C01FF0000000000B605F9
:10163E002105A502C404B804FA03F403F103E6037A
:06164E00DB030D0A0000A1
:00000001FF
